:100000000C94F4000C940D010C940D010C940D0152
:100010000C940D010C940D010C940D010C940D0128
:100020000C940D010C940D010C940D010C940D0118
:100030000C940D010C940D010C940D010C940D0108
:100040000C940D010C940D010C940D010C940D01F8
:100050000C940D010C940D010C940D010C940D01E8
:100060000C940D010C940D010C940D010C940D01D8
:100070000C940D010C940D010C940D010C940D01C8
:100080000C940D010C940D010C940D010C940D01B8
:100090000C940D010C940D010C940D010C940D01A8
:1000A0000C940D010C940D010C940D010C940D0198
:1000B0000C940D010C940D010C940D010C940D0188
:1000C0000C940D010C940D010C940D010C940D0178
:1000D0000C940D010C940D010C940D010C940D0168
:1000E0000C940D010C940D010C940D010C940D0158
:1000F0000C940D010C940D010C940D010C940D0148
:100100000C940D010C940D010C940D010C940D0137
:100110000C940D010C940D010C940D010C940D0127
:100120000C940D010C940D010C940D010C940D0117
:100130000C940D010C940D010C940D010C940D0107
:100140000C940D010C940D010C940D010C940D01F7
:100150000C940D010C940D010C940D010C940D01E7
:100160000C940D010C940D010C940D010C940D01D7
:100170000C940D010C940D010C940D010C940D01C7
:100180000C940D010C940D010C940D010C940D01B7
:100190000C940D010C940D010C940D010C940D01A7
:1001A0000C940D010C940D010C940D010C940D0197
:1001B0000C940D010C940D010C940D010C940D0187
:1001C0000C940D010C940D010C940D010C940D0177
:1001D0000C940D010C940D010C940D010C940D0167
:1001E0000C940D010C940D0111241FBECFEFDFE51F
:1001F000DEBFCDBF00E00CBF10E2A0E0B0E2E6E958
:10020000F2E000E00BBF02C007900D92A030B107F2
:10021000D9F70E941E010C9449010C94000088ED4E
:1002200084BF82E0809350008091510081FFFCCF19
:1002300088ED84BF81E08093400008950E940F0103
:10024000E0E4F0E0118283E0E0EBF0E0848380E81A
:100250008093800687E0809300088091A0068160EB
:100260008093A006A0EAB6E021E0E0E0F8E080910B
:10027000A406822714968C93149701C000008091E5
:1002800020089091210884589E41C0F310A211A229
:06029000EECFF894FFCF51
:00000001FF
